{
  "contractName": "Policy",
  "abi": [
    {
      "anonymous": false,
      "inputs": [
        {
          "indexed": true,
          "internalType": "uint256",
          "name": "policyId",
          "type": "uint256"
        },
        {
          "indexed": false,
          "internalType": "bool",
          "name": "active",
          "type": "bool"
        }
      ],
      "name": "PolicyActiveSet",
      "type": "event"
    },
    {
      "anonymous": false,
      "inputs": [
        {
          "indexed": true,
          "internalType": "uint256",
          "name": "policyId",
          "type": "uint256"
        },
        {
          "indexed": true,
          "internalType": "address",
          "name": "holder",
          "type": "address"
        },
        {
          "indexed": false,
          "internalType": "uint128",
          "name": "effectiveAt",
          "type": "uint128"
        },
        {
          "indexed": false,
          "internalType": "uint128",
          "name": "expiresAt",
          "type": "uint128"
        },
        {
          "indexed": false,
          "internalType": "uint128",
          "name": "maxCoverage",
          "type": "uint128"
        },
        {
          "indexed": false,
          "internalType": "uint128",
          "name": "deductible",
          "type": "uint128"
        },
        {
          "indexed": false,
          "internalType": "string",
          "name": "details",
          "type": "string"
        }
      ],
      "name": "PolicyCreated",
      "type": "event"
    },
    {
      "anonymous": false,
      "inputs": [
        {
          "indexed": true,
          "internalType": "uint256",
          "name": "policyId",
          "type": "uint256"
        },
        {
          "indexed": false,
          "internalType": "uint128",
          "name": "effectiveAt",
          "type": "uint128"
        },
        {
          "indexed": false,
          "internalType": "uint128",
          "name": "expiresAt",
          "type": "uint128"
        },
        {
          "indexed": false,
          "internalType": "uint128",
          "name": "maxCoverage",
          "type": "uint128"
        },
        {
          "indexed": false,
          "internalType": "uint128",
          "name": "deductible",
          "type": "uint128"
        },
        {
          "indexed": false,
          "internalType": "bool",
          "name": "active",
          "type": "bool"
        },
        {
          "indexed": false,
          "internalType": "string",
          "name": "details",
          "type": "string"
        }
      ],
      "name": "PolicyUpdated",
      "type": "event"
    },
    {
      "inputs": [
        {
          "internalType": "uint128",
          "name": "effectiveAt",
          "type": "uint128"
        },
        {
          "internalType": "uint128",
          "name": "expiresAt",
          "type": "uint128"
        },
        {
          "internalType": "uint128",
          "name": "maxCoverage",
          "type": "uint128"
        },
        {
          "internalType": "uint128",
          "name": "deductible",
          "type": "uint128"
        },
        {
          "internalType": "string",
          "name": "details",
          "type": "string"
        }
      ],
      "name": "createPolicy",
      "outputs": [
        {
          "internalType": "uint256",
          "name": "policyId",
          "type": "uint256"
        }
      ],
      "stateMutability": "nonpayable",
      "type": "function"
    },
    {
      "inputs": [
        {
          "internalType": "uint256",
          "name": "policyId",
          "type": "uint256"
        },
        {
          "internalType": "uint128",
          "name": "effectiveAt",
          "type": "uint128"
        },
        {
          "internalType": "uint128",
          "name": "expiresAt",
          "type": "uint128"
        },
        {
          "internalType": "uint128",
          "name": "maxCoverage",
          "type": "uint128"
        },
        {
          "internalType": "uint128",
          "name": "deductible",
          "type": "uint128"
        },
        {
          "internalType": "string",
          "name": "details",
          "type": "string"
        }
      ],
      "name": "updatePolicy",
      "outputs": [],
      "stateMutability": "nonpayable",
      "type": "function"
    },
    {
      "inputs": [
        {
          "internalType": "uint256",
          "name": "policyId",
          "type": "uint256"
        },
        {
          "internalType": "bool",
          "name": "active",
          "type": "bool"
        }
      ],
      "name": "setActive",
      "outputs": [],
      "stateMutability": "nonpayable",
      "type": "function"
    },
    {
      "inputs": [
        {
          "internalType": "uint256",
          "name": "policyId",
          "type": "uint256"
        }
      ],
      "name": "getPolicy",
      "outputs": [
        {
          "internalType": "address",
          "name": "holder",
          "type": "address"
        },
        {
          "internalType": "uint128",
          "name": "effectiveAt",
          "type": "uint128"
        },
        {
          "internalType": "uint128",
          "name": "expiresAt",
          "type": "uint128"
        },
        {
          "internalType": "uint128",
          "name": "maxCoverage",
          "type": "uint128"
        },
        {
          "internalType": "uint128",
          "name": "deductible",
          "type": "uint128"
        },
        {
          "internalType": "bool",
          "name": "active",
          "type": "bool"
        },
        {
          "internalType": "string",
          "name": "details",
          "type": "string"
        }
      ],
      "stateMutability": "view",
      "type": "function",
      "constant": true
    },
    {
      "inputs": [
        {
          "internalType": "uint256",
          "name": "policyId",
          "type": "uint256"
        },
        {
          "internalType": "uint128",
          "name": "ts",
          "type": "uint128"
        }
      ],
      "name": "isPolicyActiveAt",
      "outputs": [
        {
          "internalType": "bool",
          "name": "",
          "type": "bool"
        }
      ],
      "stateMutability": "view",
      "type": "function",
      "constant": true
    }
  ],
  "bytecode": "0x6080806040523461001b576001600055610adf90816100218239f35b600080fdfe6080604052600436101561001257600080fd5b60003560e01c8063095fb2911461065c5780632b07fce3146104ea578063c83f32401461015c578063dee08ab3146100ef5763e60a955d1461005357600080fd5b346100ea5760403660031901126100ea57600435602435801515908181036100ea577f0a010c82cf9bf270e1652d2526b704b364aff18259f05c06a7a013a3113f93b7916100e16020928560005260018452600460406000206100b881541515610a33565b6100cf60018060a01b036001830154163314610a70565b019060ff801983541691151516179055565b604051908152a2005b600080fd5b346100ea5760403660031901126100ea57602061010a6108b5565b600435600052600182526002604060002061012781541515610a33565b0154906001600160801b03809116908216811015918261014e575b50506040519015158152f35b60801c101590508280610142565b346100ea5760a03660031901126100ea576004356001600160801b03811681036100ea576101886108b5565b6101906108cb565b916101996108e1565b9160843567ffffffffffffffff81116100ea576101ba9036906004016108f7565b92906101d96001600160801b0384166001600160801b03841610610925565b6000549460001986146104d4576001860160005560405196610100880188811067ffffffffffffffff8211176104be576040528688523360208901526001600160801b03841660408901526001600160801b03851660608901526001600160801b03811660808901526001600160801b03821660a0890152600160c089015267ffffffffffffffff86116104be5760405161027e601f8801601f191660200182610962565b86815236878501116100ea57868460208301376000818801602090810182905260e08b0192835289825260018082526040928390208c518155918c015190820180546001600160a01b0319166001600160a01b03909216919091179055908a015160608b0151608090811b6001600160801b03199081166001600160801b03938416176002850155818d015160a08e015190921b1691161760038201559861033b9060c00151151560048b019060ff801983541691151516179055565b519485519867ffffffffffffffff8a116104be5789899761036e60209c6103656005860154610984565b600586016109be565b8b90601f831160011461041757946001600160801b0380989581956005867fb14a9f864a9de97d6df05c2a911902707d73beef0ffdc7fe739f1eaba91b90399d9b9785976104019c60009261040c575b50508160011b916000199060031b1c1916179101555b604051998a99168952168d88015216604086015216606084015260a06080840152339660a0840191610a12565b0390a3604051908152f35b0151905038806103be565b90600584016000528c6000209160005b601f19851681106104a457506001600160801b0398958995600560018789977fb14a9f864a9de97d6df05c2a911902707d73beef0ffdc7fe739f1eaba91b90399f9d999789976104019e99601f1981161061048b575b505050811b019101556103d4565b015160001960f88460031b161c1916905538808061047d565b8183015184558d9b50600190930192918e01918e01610427565b634e487b7160e01b600052604160045260246000fd5b634e487b7160e01b600052601160045260246000fd5b346100ea576020806003193601126100ea57600435600052600180825260406000209161051983541515610a33565b60018060a01b038284015416926002810154600382015490600560ff6004850154169301604051809660009083549361055185610984565b9485855289838216918260001461063a5750506001146105fb575b505061057a92500386610962565b6040519586526001600160801b03908181168588015260801c60408701528116606086015260801c6080850152151560a084015260e060c08401528151918260e085015260005b8381106105e65750505081610100916000838284010152601f80199101168101030190f35b818101830151858201610100015282016105c1565b88925060005281600020906000915b85831061062257505061057a9350820101898061056c565b8054838c018501528a9450899390920191810161060a565b925093505061057a94915060ff191682840152151560051b820101898061056c565b346100ea5760c03660031901126100ea576004356106786108b5565b906106816108cb565b9161068a6108e1565b90608435936001600160801b0392838616928387036100ea5760a4359367ffffffffffffffff938486116100ea576106c96107429636906004016108f7565b9490958960005261076a60019b8c9360209b858d526107066040600020966106f388541515610a33565b8701546001600160a01b03163314610a70565b8080881699169b8c9761071a8b8a10610925565b6001600160801b031960809190911b81166001600160801b0399909916989098176002880155565b6003860191168096825416178155906001600160801b0382549181199060801b169116179055565b600582019086116104be57610789866107838354610984565b836109be565b6000601f871160011461082457869594939260ff92876108149a997fc273cc775ba8d92b448b421a3e9e7b287d22beb74081e7efbeebef27157b60bb9e9f600495600093610819575b501b906000198a60031b1c19161790555b015416926040519889988952880152604087015260608601521515608085015260c060a085015260c0840191610a12565b0390a2005b8c01359250386107d2565b601f19871690826000528a6000209160005b8181106108a05750927fc273cc775ba8d92b448b421a3e9e7b287d22beb74081e7efbeebef27157b60bb9c9d6004938a99989796936108149c9b60ff9710610886575b505088811b0190556107e3565b8b013560001960038c901b60f8161c191690558f80610879565b8a8301358455928e0192918c01918c01610836565b602435906001600160801b03821682036100ea57565b604435906001600160801b03821682036100ea57565b606435906001600160801b03821682036100ea57565b9181601f840112156100ea5782359167ffffffffffffffff83116100ea57602083818601950101116100ea57565b1561092c57565b60405162461bcd60e51b815260206004820152600e60248201526d6261642074696d652072616e676560901b6044820152606490fd5b90601f8019910116810190811067ffffffffffffffff8211176104be57604052565b90600182811c921680156109b4575b602083101461099e57565b634e487b7160e01b600052602260045260246000fd5b91607f1691610993565b90601f81116109cc57505050565b600091825260208220906020601f850160051c83019410610a08575b601f0160051c01915b8281106109fd57505050565b8181556001016109f1565b90925082906109e8565b908060209392818452848401376000828201840152601f01601f1916010190565b15610a3a57565b60405162461bcd60e51b815260206004820152600e60248201526d6e6f207375636820706f6c69637960901b6044820152606490fd5b15610a7757565b60405162461bcd60e51b815260206004820152600a6024820152693737ba103437b63232b960b11b6044820152606490fdfea2646970667358221220c4b341798d0bc30f2b21ff229d5a95ec4c29fa98e8dc5192f0d8be79659d1b7a64736f6c63430008110033",
  "immutableReferences": {},
  "source": "// SPDX-License-Identifier: MIT\npragma solidity ^0.8.17;\n\ncontract Policy {\n    struct PolicyData {\n        uint256 id;\n        address holder;        \n        uint128  effectiveAt;   \n        uint128  expiresAt;     \n        uint128 maxCoverage;   \n        uint128 deductible;    \n        bool    active;        \n        string  details;       \n    }\n\n    uint256 private _nextId = 1;\n    mapping(uint256 => PolicyData) private _policies;\n\n    event PolicyCreated(\n        uint256 indexed policyId,\n        address indexed holder,\n        uint128 effectiveAt,\n        uint128 expiresAt,\n        uint128 maxCoverage,\n        uint128 deductible,\n        string details\n    );\n    event PolicyUpdated(\n        uint256 indexed policyId,\n        uint128 effectiveAt,\n        uint128 expiresAt,\n        uint128 maxCoverage,\n        uint128 deductible,\n        bool active,\n        string details\n    );\n    event PolicyActiveSet(uint256 indexed policyId, bool active);\n\n    /// Create a new policy\n    function createPolicy(\n        uint128  effectiveAt,\n        uint128  expiresAt,\n        uint128 maxCoverage,\n        uint128 deductible,\n        string calldata details\n    ) external returns (uint256 policyId) {\n        require(effectiveAt < expiresAt, \"bad time range\");\n        policyId = _nextId++;\n        _policies[policyId] = PolicyData({\n            id: policyId,\n            holder: msg.sender,\n            effectiveAt: effectiveAt,\n            expiresAt: expiresAt,\n            maxCoverage: maxCoverage,\n            deductible: deductible,\n            active: true,\n            details: details\n        });\n        emit PolicyCreated(policyId, msg.sender, effectiveAt, expiresAt, maxCoverage, deductible, details);\n    }\n\n    /// Holder can update most fields.\n    function updatePolicy(\n        uint256 policyId,\n        uint128  effectiveAt,\n        uint128  expiresAt,\n        uint128 maxCoverage,\n        uint128 deductible,\n        string calldata details\n    ) external {\n        PolicyData storage p = _policies[policyId];\n        require(p.id != 0, \"no such policy\");\n        require(msg.sender == p.holder, \"not holder\");\n        require(effectiveAt < expiresAt, \"bad time range\");\n        p.effectiveAt = effectiveAt;\n        p.expiresAt   = expiresAt;\n        p.maxCoverage = maxCoverage;\n        p.deductible  = deductible;\n        p.details     = details;\n        emit PolicyUpdated(policyId, effectiveAt, expiresAt, maxCoverage, deductible, p.active, details);\n    }\n\n    /// Holder can set active flag (e.g., cancel/restore).\n    function setActive(uint256 policyId, bool active) external {\n        PolicyData storage p = _policies[policyId];\n        require(p.id != 0, \"no such policy\");\n        require(msg.sender == p.holder, \"not holder\");\n        p.active = active;\n        emit PolicyActiveSet(policyId, active);\n    }\n\n    function getPolicy(uint256 policyId)\n        external\n        view\n        returns (\n            address holder,\n            uint128  effectiveAt,\n            uint128  expiresAt,\n            uint128 maxCoverage,\n            uint128 deductible,\n            bool    active,\n            string memory details\n        )\n    {\n        PolicyData storage p = _policies[policyId];\n        require(p.id != 0, \"no such policy\");\n        return (p.holder, p.effectiveAt, p.expiresAt, p.maxCoverage, p.deductible, p.active, p.details);\n    }\n\n    function isPolicyActiveAt(uint256 policyId, uint128 ts) external view returns (bool) {\n        PolicyData storage p = _policies[policyId];\n        require(p.id != 0, \"no such policy\");\n        return ts >= p.effectiveAt && ts <= p.expiresAt;\n    }\n}\n",
  "sourcePath": "/home/maxim/CPE196D-DriveChain/contracts/policy.sol",
  "compiler": {
    "name": "solc",
    "version": "0.8.17+commit.8df45f5f.Emscripten.clang"
  },
  "schemaVersion": "3.4.16",
  "updatedAt": "2025-11-12T01:19:04.756Z",
  "networkType": "ethereum",
  "devdoc": {
    "kind": "dev",
    "methods": {},
    "version": 1
  },
  "userdoc": {
    "kind": "user",
    "methods": {
      "createPolicy(uint128,uint128,uint128,uint128,string)": {
        "notice": "Create a new policy"
      },
      "setActive(uint256,bool)": {
        "notice": "Holder can set active flag (e.g., cancel/restore)."
      },
      "updatePolicy(uint256,uint128,uint128,uint128,uint128,string)": {
        "notice": "Holder can update most fields."
      }
    },
    "version": 1
  }
}